:04000000E9EF02F032
:1000080000C015F0F2AA0FD0F2A40DD0F294E10EC0
:10001800D76E7C0ED66E00016551000804E26505B6
:10002800006E00C065F09DA018D09EA016D09E90CE
:100038000B0ECF6EDC0ECE6E5150010F006E00C05D
:1000480051F0040E515C09E30001516A6551000842
:1000580004E26505006E00C065F015C000F01100EF
:0A006800210E0D6E0D2EFED71200C2
:100072000F0E0C6E470E0D6E0D2EFED70C2EFCD7FA
:0600820000000000120066
:0600880000000000120060
:10008E0000018CBF02D08C9601D08C868CBD02D024
:10009E008C9401D08C848CBB02D08C9201D08C823B
:1000AE008CB902D08C9001D08C8063B102D08C8838
:1000BE0001D08C988C8AE1DF8C9A8CB702D08C960A
:1000CE0001D08C868CB502D08C9401D08C848CB3EC
:1000DE0002D08C9201D08C828CB102D08C9001D047
:1000EE008C8063B102D08C8801D08C988C8AC5DF4D
:0E00FE008C9A63A102D0B6DF01D0AFDF1200F2
:0E010C00000163918BC08CF0BCDF6381120098
:10011A000B6A0A6A096A086A0E6A033408360450C6
:10012A00085E0550D8A0053C095E0650D8A0063CDA
:10013A000A5E0750D8A0073C0B5EE86AD8A0010EF9
:10014A000E5E0336070E0C6E0334083609360A367D
:10015A000B360E36045003A012D0085E0550D8A004
:10016A00053C095E0650D8A0063C0A5E0750D8A096
:10017A00073C0B5EE86AD8A0010E0E5E11D0082675
:10018A000550D8B0053C09260650D8B0063C0A26C8
:10019A000750D8B0073C0B26E86AD8B0010E0E26E5
:1001AA0003360C2ED1D70234083609360A360B36F6
:1001BA000E36045003A012D0085E0550D8A0053CA4
:1001CA00095E0650D8A0063C0A5E0750D8A0073C34
:1001DA000B5EE86AD8A0010E0E5E11D00826055003
:1001EA00D8B0053C09260650D8B0063C0A26075066
:1001FA00D8B0073C0B26E86AD8B0010E0E260236A4
:10020A00070E0C6E0234083609360A360B360E36DD
:10021A00045002A012D0085E0550D8A0053C095E21
:10022A000650D8A0063C0A5E0750D8A0073C0B5ED1
:10023A00E86AD8A0010E0E5E11D008260550D8B083
:10024A00053C09260650D8B0063C0A260750D8B005
:10025A00073C0B26E86AD8B0010E0E2602360C2E91
:10026A00D1D70134083609360A360B360E36045011
:10027A0002A012D0085E0550D8A0053C095E0650BF
:10028A00D8A0063C0A5E0750D8A0073C0B5EE86A75
:10029A00D8A0010E0E5E11D008260550D8B0053C34
:1002AA0009260650D8B0063C0A260750D8B0073CA3
:1002BA000B26E86AD8B0010E0E260136070E0C6E20
:1002CA000134083609360A360B360E36045001A0B8
:1002DA0012D0085E0550D8A0053C095E0650D8A089
:1002EA00063C0A5E0750D8A0073C0B5EE86AD8A015
:1002FA00010E0E5E11D008260550D8B0053C09261D
:10030A000650D8B0063C0A260750D8B0073C0B2640
:10031A00E86AD8B0010E0E2601360C2ED1D7003469
:10032A00083609360A360B360E36045001A012D0AA
:10033A00085E0550D8A0053C095E0650D8A0063CC8
:10034A000A5E0750D8A0073C0B5EE86AD8A0010EE7
:10035A000E5E11D008260550D8B0053C0926065075
:10036A00D8B0063C0A260750D8B0073C0B26E86AE4
:10037A00D8B0010E0E260036070E0C6E0034083671
:10038A0009360A360B360E36045000A012D0085E23
:10039A000550D8A0053C095E0650D8A0063C0A5E66
:1003AA000750D8A0073C0B5EE86AD8A0010E0E5E83
:1003BA0011D008260550D8B0053C09260650D8B0F9
:1003CA00063C0A260750D8B0073C0B26E86AD8B084
:1003DA00010E0E2600360C2ED1D700B00ED00450D6
:1003EA0008260550D8B0053C09260650D8B0063C68
:0C03FA000A260750D8B0073C0B26120062
:10040600086A080E0C6E003408360450085ED8B030
:0E04160002D00826D89000360C2EF5D7120022
:10042400959A959895909592959495968C9A8C9882
:100434008C968C948C928C901ADE19DE18DE8C8249
:100444008C808C8A1FDE8C9A12DE8C8A1BDE8C9A3E
:100454000EDE8C8A17DE8C9A0ADE8C908C8A12DE71
:100464008C9A05DE8C8A0EDE8C9A8C928C868C8A11
:1004740009DE8C9AFCDD8C968C808C8A03DE8C9A47
:100484008C908C8AFFDD8C9AF2DD8C8AFBDD8C9A51
:100494008C808C8AF7DD8C9AEADD8C908C8AF2DD74
:1004A4008C9A8C868C848C828C808C8AEBDD8C9AE2
:0804B400DEDD0001638112008E
:1004BC000900F5CFE6FF0006FBE10106F9E11200A9
:1004CC0010D0800E0001866F1AD0C00E866F17D028
:1004DC00940E866F14D0D40E866F11D0800E866F5A
:1004EC000ED000018651010AECE08651020AEDE0C3
:1004FC008651030AEDE08651040AEDE0EFD787053B
:10050C00006E8651002600C086F000C08CF0B9DD6C
:10051C0063918A6B8A518825E96E000E8921EA6EF7
:10052C00EE520BE08A518825E96E000E8921EA6EA5
:0E053C00EECF8BF0E5DD8A2BEDD76381120048
:10054A00220E0C6E086A096A0A6A0B6A0C06D8B48B
:10055A001FD0D8900B320A320932083203320232E3
:10056A0001320032D8A0F2D70C06D8B409D0045010
:10057A0008260550092206500A2207500B22EAD7FC
:10058A00045008260550092206500A2207500B2259
:02059A0012004D
:10059C000001866B876B0D0E0D6E0D2EFED7C28281
:1005AC00C2A209D0010E875D02E1F40E865D03E262
:1005BC00864B872BF5D7C4CF01F0006AC3500012CD
:0605CC00000E01121200F6
:1005D20079EC05F00001646B666B0A0E656F516A77
:1005E2004A6A496AFF0E4B6EFF0E506E0F0E4C6E3A
:1005F200270E4D6E000E4E6E4F6E676B686B7A6BF8
:100602007B6B7C6B7D6B070EB46E928092849286BC
:100612001B0EC16EBE0EC06E94908B90938093821F
:10062200F298F096070ED56EB00ECD6EF28CF28E69
:10063200F8DE020E0B6E040E0C6EBA0E0D6E0D2E4F
:10064200FED70C2EFCD70B2EFAD70000010E8C6FB2
:100652001DDD820E0C6EDD0E0D6E0D2EFED70C2EE4
:10066200FCD7000000000C0E8C6F10DD010E866FAF
:10067200010E876F380E886F000E896F26DF090E14
:100682000B6E1E0E0C6EE40E0D6E0D2EFED70C2E92
:10069200FCD70B2EFAD70000F2949E9081A014D0C2
:1006A2004A50000A11E1010E4A6E66530DE164538D
:1006B200010ED8A4000E646F6451000A03E10A0E11
:1006C200656F02D03C0E656F81A04A6A81A227D075
:1006D2004950000A24E1010E496E665320E1010EE1
:1006E200666FFF0E506E0F0E4C6E270E4D6E000E93
:1006F2004E6E4F6E6451000A0AE10A0E656F516A2E
:100702000B0ECF6EDC0ECE6ECD809D8008D03C0EDF
:10071200656FE10ED76E7C0ED66ED58EF28A81A2FF
:10072200496A1B0EC16E010EC26E37DF00C067F050
:1007320001C068F0000E026E036EE80E046E030E36
:10074200056E000E066E076EFFDEFF0E046E030ED0
:10075200056E000E066E076EDFDC00C07AF001C087
:100762007BF002C07CF003C07DF0020E4C24056ECB
:10077200000E4D20066E000E4E20076E000E4F201A
:10078200086E0350085C08E10250075C05E1015065
:10079200065C02E10050055C26E3020E7A25016E3A
:1007A200000E7B21026E000E7C21036E000E7D2165
:1007B200046E4F50045C08E14E50035C05E14D505D
:1007C200025C02E14C50015C0EE3000E006E4F1819
:1007D20008E100504E1805E1270E4D1802E14C5079
:1007E2000F0A01E0CAD0E80E046E030E056E000E79
:1007F200066E076E7AC000F07BC001F07CC002F08A
:100802007DC003F089DC0A0E046E000E056E066ED2
:10081200076E82DC08C000F009C001F00AC002F0D5
:100822000BC003F000C082F001C083F002C084F06C
:1008320003C085F082C07FF0640E046E000E056E68
:10084200066E076E7AC000F07BC001F07CC002F039
:100852007DC003F061DC0A0E046E000E056E066EAA
:10086200076E5ADC08C000F009C001F00AC002F0AD
:100872000BC003F000C081F00A0E046E000E056E7C
:10088200066E076E7AC000F07BC001F07CC002F0F9
:100892007DC003F041DC0A0E046E000E056E066E8A
:1008A200076E3ADC08C000F009C001F00AC002F08D
:1008B2000BC003F000C080F00A0E046E000E056E3D
:1008C200066E076E7AC000F07BC001F07CC002F0B9
:1008D2007DC003F021DC08C000F009C001F00AC0AD
:1008E20002F00BC003F000C07EF0540E696F650E7B
:1008F2006A6F6D0E6B6F700E6C6F3A0E6D6F200E1D
:100902006E6F200E6F6F8251000A03E1200E706F2E
:1009120003D0300E7F25706F300E8125716F300E3F
:100922008025726F2E0E736F300E7E25746FDF0E70
:10093200756F430E766F200E776F200E786F796B8E
:100942007F51000A05E18151000A02E1200E716F18
:100952000C0E8C6F47EC00F0010E866F010E876F54
:10096200690E886F000E896FB0DD7AC04CF07BC0D3
:100972004DF07CC04EF07DC04FF066531DE18B9070
:1009820064514B1818E06451000A0AE1020E866FA6
:10099200010E876F270E886F000E896F96DD09D0D2
:1009A200020E866F010E876F160E886F000E896F1A
:1009B2008CDD64C04BF076D0000E7D5D08E1000E48
:1009C2007C5D05E1020E7B5D02E1580E7A5D02E27A
:1009D2008B800DD07D51000808E17C51000805E1B3
:1009E2007B51030802E17A512008D8A08B9065510F
:1009F20050183FE0540E526E650E536E6D0E546EDB
:100A0200700E556E6F0E566E3A0E576E200E586E61
:100A1200200E596E200E5A6E200E5B6E200E5C6EFA
:100A22000A0E046E65C000F0EDDC300E00245D6E2F
:100A32000A0E046E65C000F0E5DC08C000F0300E5E
:100A420000245E6E730E5F6E200E606F200E616F6B
:100A5200626B5D50300A02E1200E5D6E020E866FFF
:100A6200010E876F520E886F000E896F2EDD65C0F2
:100A720050F06551000A16E1666BD59EF29ACD9050
:100A82009D90FF0E4B6E0F0E4C6E270E4D6E000E9C
:100A92004E6E4F6E6451000A03E10A0E656F02D07A
:100AA2003C0E656F340E0C6EF10E0D6E0D2EFED7E0
:0C0AB2000C2EFCD700000000F1D5FFD78F
:100AF20010EE16F0330E006E010E016EBE0EF66E93
:0E0B02000A0EF76E000EF86E5EEC02F01200A6
:100ABE004D6F646F3A204C4F4E474F2036307320A7
:010ACE000027
:100ACF004D6F646F3A20435552544F20313073208D
:010ADF000016
:100AE0004120696E69636961722E2E2E20202020BC
:010AF0000005
:020000040030CA
:0E000000000C1F1EFF8381FF0FC00FE00F409A
:00000001FF
